:020000021000EC
:10F0000000000120DDEA020005EB020007EB020030
:10F0100009EB02000BEB02000DEB02000000000008
:10F020000000000000000000000000000FEB0200E4
:10F0300011EB02000000000013EB020015EB0200D0
:10F04000353C020017EB02008159020017EB020069
:10F0500017EB020017EB02005945020017EB020004
:10F0600017EB020017EB020017EB020017EB020090
:10F0700017EB020017EB020017EB020017EB020080
:10F0800017EB0200C110020017EB020017EB0200A1
:10F0900001110200997902007D04030017EB0200C0
:10F0A00017EB020017EB020017EB020017EB020050
:10F0B00017EB020017EB0200000000000000000048
:10F0C00017EB020017EB020017EB020017EB020030
:10F0D00017EB020017EB020017EB02000000000024
:10F0E0000000000000000000000000000000000020
:10F0F0000000000000000000000000000000000010
:10F1000000000000000000000000000000000000FF
:10F1100000000000000000000000000000000000EF
:10F4000010B5054C237833B9044B13B10448AFF35E
:10F4100000800123237010BDD021002000000000D7
:10F42000C4110300084B10B51BB108480849AFF3DD
:10F4300000800848036803B910BD074B002BFBD0C0
:10F44000BDE81040184700BF00000000C4110300D1
:10F45000D4210020BC21002000000000154B002B0F
:10F4600008BF134B9D46A3F5803A00218B460F46FB
:10F470001348144A121A00F065F80F4B002B00D005
:10F4800098470E4B002B00D0984700200021040025
:10F490000D000D48002802D00C48AFF3008000F0AA
:10F4A0002BF82000290008F0D9F900F011F800BF6E
:10F4B0000000080000000120000000000000000023
:10F4C000D0210020E43700200000000000000000F0
:10F4D00008B5074B044613B10021AFF30080054B7C
:10F4E0001868836A03B19847204600F033F800BFDC
:10F4F000000000006C0E030070B50E4B0E4CE41AB9
:10F50000A41000251E46A54204D056F82530984781
:10F510000135F8E711F09CFC084C094BE41AA410E3
:10F5200000251E46A54204D056F8253098470135DF
:10F53000F8E770BDB4210020B4210020B8210020DC
:10F54000B421002002440346934202D003F8011B79
:10F55000FAE77047FEE700BF80B483B000AF786081
:10F5600039607B681B78012B02D1044B01221A7091
:10F570000C37BD465DF8047B704700BFEE230020CA
:10F58000B0B58EB002AF0346FB712A4B1B78002B3F
:10F5900006D0294B1B78FA799A4201D1002344E026
:10F5A0000123009300202549254A4FF4807308F079
:10F5B000DFFB0346FB62FB6A002B01D0082334E02B
:10F5C000204B07F10C041D460FCD0FC495E80F002A
:10F5D00084E80F00002387F820300623FB6008230F
:10F5E0003B610523BB6107237B614FF0EB737B62BB
:10F5F000154805F057FEFB79002B01D0002300E0F1
:10F60000124B07F10C02104811461A4605F006FE8F
:10F61000F862FB6A002B01D0FB6A06E0054B012271
:10F620001A70054AFB791370002318463037BD461F
:10F63000B0BD00BFEC230020ED230020700E0300BE
:10F64000EC210020780E03008C21002059F50100E8
:10F6500080B582B000AF0023FB71054805F07EFF46
:10F660000346FB71FB7918460837BD4680BD00BFD5
:10F670008C21002080B588B000AF7860396001230C
:10F68000FB771D4879683A6810F0AEFF3B68DBB243
:10F690001A4819491A4605F019FFF860FB68002B53
:10F6A00001D00023FB770023BB613B687B610A2309
:10F6B0003B617A68BB691344002019467A6908F0F7
:10F6C00009FBB860BA69BB681344BB617A69BB685F
:10F6D000D31A7B61BB68002B06D13B69013B3B61C0
:10F6E0003B69002B00D102E07B69002BE1D1FB7F5D
:10F6F00018462037BD4680BDEC2200208C2100201A
:10F7000080B485B000AF786039603B68002B02DAC6
:10F710000023FB7307E07B681A683B681A447B6828
:10F720001A600123FB73FB7B18461437BD465DF856
:10F73000047B704780B586B000AFF860B9607A602E
:10F7400000233B610123FB75FB68002B11D03B6953
:10F75000BA681A44FB681B6810460A491A4610F03A
:10F7600069FF386178683969FFF7CAFF0346FB759E
:10F7700002E07B6800221A60FB7D18461837BD4600
:10F7800080BD00BF980E0300F0B5CDB004AF0446B5
:10F7900007F108000160391D0A603A46136007F15D
:10F7A0000F0322461A700023C7F81C3107F1140317
:10F7B00000221A60012387F81B31FFF749FF034637
:10F7C000002B01D0002322E107F114031B6807F18D
:10F7D0001802D11807F1080307F114021868FFF79F
:10F7E000A9FF034683F00103DBB2002B01D0002305
:10F7F0000DE1D7F83831062B00F2E58001A252F86E
:10F8000023F000BF21F801005DF801007FF801003E
:10F81000ABF80100E3F8010023F901006FF90100E2
:10F820003B1D186810F032FF0346C7F81C31D7F8AB
:10F830001C2107F114031B681344FF2B0DD807F19B
:10F8400014031B6807F11802D118D7F81C213B1DBF
:10F850000846196810F0C8FEB6E0B5E007F11403D9
:10F860001B6807F11802D1183B461B681A683B1D3C
:10F870000846196810F0DEFEC7F81C01A4E007F185
:10F8800014031B6807F11802D1183B461B681A685D
:10F890003B461B6804331C683B1D08461968234619
:10F8A00010F0C8FEC7F81C018EE007F114031B68B6
:10F8B00007F11802D1183B461B681D683B461B68C0
:10F8C00004331C683B461B6808331A683B1D0092D2
:10F8D000084619682A46234610F0ACFEC7F81C01FA
:10F8E00072E007F114031B6807F11802D0183B46B9
:10F8F0001B681D683B461B6804331C683B461B683D
:10F90000083319683B461B680C331A683B1D00918D
:10F91000019219682A46234610F08CFEC7F81C0194
:10F9200052E007F114031B6807F11802D6183B4692
:10F930001B681D683B461B6804331C683B461B68FC
:10F94000083318683B461B680C3319683B461B6834
:10F9500010331A683B1D00900191029230461968DD
:10F960002A46234610F066FEC7F81C012CE007F17A
:10F9700014031B6807F1180202EB030E3B461B68D9
:10F980001E683B461B6804331D683B461B680833F2
:10F990001C683B461B680C3318683B461B681033D9
:10F9A00019683B461B6814331A683B1D009401908C
:10F9B000029103927046196832462B4610F03AFEC7
:10F9C000C7F81C0100E000BF07F114031846D7F880
:10F9D0001C11FFF795FE034687F81B3197F81B3182
:10F9E00083F00103DBB2002B05D107F114031B6880
:10F9F000B3F5807F01D9002309E007F114031B68E8
:10FA000007F1180210461946FFF734FE0346184660
:10FA100007F59277BD46F0BD80B485B000AF0346D0
:10FA20003960FB710223FB6017E0FB79FA689200F2
:10FA30001341DBB203F00F03FB72FB68C3F1010358
:10FA40003A681A44FB7A092B03D9FB7A3733DBB2C5
:10FA500002E0FB7A3033DBB21370FB685A1EFA60A7
:10FA6000002BE2D11437BD465DF8047B704700BF20
:10FA700080B483B000AF0346FB71FB791F2B04D920
:10FA8000FB797E2B01D8FB7900E02E2318460C373A
:10FA9000BD465DF8047B704790B5D1B000AF044619
:10FAA00007F108000160391D0A603A46136007F14A
:10FAB0000F0322461A7007F1100300221A603B461A
:10FAC0001B68C7F82C31D7F85421D7F85C311344A0
:10FAD000C7F8243107F108031B68002B01D00A2363
:10FAE00000E00023C7F82031FFF7B2FD0346002BEA
:10FAF00002D03B461B6824E13B461B68002B38D1F3
:10FB000007F110031B6807F11402D11807F108036D
:10FB100007F110021868FFF70DFE034683F001039A
:10FB2000DBB2002B02D03B461B680AE13B1D186884
:10FB300010F0ACFDC7F81C01D7F81C31C22B28BF50
:10FB4000C223C7F81C3107F110031B6807F1140228
:10FB50001A443B1D10461968D7F81C2110F044FDCB
:10FB600007F110031A68D7F81C311A4407F1100383
:10FB70001A6007F110031B68C7F81831D7F818216D
:10FB8000D7F8203113443133C7F8143107F1140288
:10FB9000D7F818311344C7F83C3107F11402D7F8ED
:10FBA00014311344C7F838310023C7F828310DE069
:10FBB000D7F83C3120221A70D7F83C310133C7F80E
:10FBC0003C31D7F828310133C7F82831D7F828213C
:10FBD000D7F820319A42EBD30023C7F8303165E0E3
:10FBE000D7F82C21D7F824319A421CD3D7F83C31CE
:10FBF0005A1CC7F83C2120221A70D7F83C315A1CF5
:10FC0000C7F83C2120221A70D7F83C315A1CC7F89B
:10FC10003C2120221A70D7F838315A1CC7F83821F5
:10FC200020221A703DE0D7F82C21D7F854319A429F
:10FC300008D2D7F85021D7F82C3113441B7887F815
:10FC400037310AE0D7F82C21D7F85431D31AD7F836
:10FC5000582113441B7887F8373197F83731184605
:10FC6000D7F83C11FFF7D8FED7F83C310233C7F87C
:10FC70003C31D7F83C315A1CC7F83C2120221A707D
:10FC8000D7F83841631CC7F8383197F83731184630
:10FC9000FFF7EEFE03462370D7F82C310133C7F887
:10FCA0002C31D7F830310133C7F83031D7F8303143
:10FCB0000F2B95D9D7F838315A1CC7F838210D22A7
:10FCC0001A70D7F838315A1CC7F838210A221A702E
:10FCD000D7F83C315A1CC7F83C2120221A7007F192
:10FCE00010031A68D7F82031134403F1430207F1D7
:10FCF00010031A6007F110031B6807F11402104685
:10FD00001946FFF7B7FC034683F00103DBB2002B73
:10FD100002D0D7F82C3114E0FFF79AFC0346002BF1
:10FD200002D0D7F82C310CE007F1100300221A6042
:10FD3000D7F82C21D7F824319A42FFF41AAFD7F81C
:10FD40002C31184607F5A277BD4690BD80B400AFB0
:10FD5000024B1846BD465DF8047B704789F70100E9
:10FD600080B400AF024B1846BD465DF8047B704777
:10FD700099FA010090B585B000AF78600020FFF7D8
:10FD8000FFFBF860FB68002B0AD1FFF7DFFF04469A
:10FD9000FFF7E6FF0346204619467A6800F00EF8A2
:10FDA000FB6818461437BD4690BD00BF80B500AF54
:10FDB0000120FFF7E5FB0346184680BD80B584B0FF
:10FDC00000AFF860B9607A60074BFF229A60064B7B
:10FDD00000221A60044B00225A60F868B96800F0EB
:10FDE00005F81037BD4680BDF023002080B483B0F5
:10FDF00000AF78603960064A7B68C2F81034044A64
:10FE00003B68C2F814340C37BD465DF8047B70477C
:10FE1000F023002080B588B000AF78607B680133A4
:10FE20007B600123BB610123FB770023FB7307F198
:10FE30000F03184601F0C6FA274B9A68264B5968FB
:10FE4000254B1B68CB1A134401337B617A68BB696D
:10FE500013443B613A697B699A422DD97B69002B37
:10FE600027D03B7A012262F301033B723B7A6FF3A6
:10FE700082033B723B7A052262F3C5033B723B89E6
:10FE80006FF389133B81154B1B68C3F31502BB68E5
:10FE900062F39F23BB60104B1B685A1C0E490A601B
:10FEA0000D4A92681340BA680B4902339B000B4419
:10FEB0005A600023FB7705E0074B1A687B68134400
:10FEC000054A1360FB7B184601F086FAFB7F184653
:10FED0002037BD4680BD00BFF023002094210020C4
:10FEE00080B586B000AF03463960FB7100237B61AB
:10FEF0001D4B9B683B611C4B1B68FB607869FFF7DF
:10FF000089FF0346002B2BD03B7A012262F30103C9
:10FF10003B723B7A6FF382033B72FB7903F007037A
:10FF2000DAB23B7A62F3C5033B727B69DBB203F062
:10FF30000F03DAB23B8962F389133B813B68C3F359
:10FF40001502BB6862F39F23BB60FB685A1CFA6012
:10FF50003A691340BA68044902339B000B445A6063
:10FF60001837BD4680BD00BFF023002080B588B0A3
:10FF700000AF0346B9607A60FB730123FB61224B3B
:10FF80009B68BB61204B1B687B61F869FFF742FFF0
:10FF90000346002B34D03B7C012262F301033B7407
:10FFA0003B7C6FF382033B74FB7B03F00703DAB205
:10FFB0003B7C62F3C5033B74FB69DBB203F00F03C8
:10FFC000DAB23B8A62F389133B82BB68C3F3150242
:10FFD0003B6962F39F233B617B695A1C7A61BA6972
:10FFE00013403A69084902339B000B445A607A690E
:10FFF000BB691340044A02339B0013447A685A6079
:020000022000DC
:100000002037BD4680BD00BFF023002080B400AF84
:10001000064B5A68054B1B689A420CBF012300230C
:10002000DBB21846BD465DF8047B7047F023002024
:10003000B0B59CB004AFFFF7E9FF0346002B01D039
:10004000002331E19A4B5B68FB65994B9B683B64ED
:10005000FB6DBB65FB6D5A1CFA653A6C1340944A04
:1000600002339B0013445B68BB611AE07B8BC3F3D4
:1000700089139BB21A463B8BC3F389139BB213447B
:100080001A46FB6D1344FB65FB6DBB65FB6D5A1C8B
:10009000FA653A6C1340864A02339B0013445B684E
:1000A000BB613B7E03F00303DBB2002BDED00023F9
:1000B0007B653B7E03F00403DBB2002B01D0002301
:1000C0007B65002387F853303B7E03F00303DBB2EC
:1000D000022B40F0A280FB6D5A1CFA653A6C13406B
:1000E000734A02339B0013445B68FB637B8BC3F34F
:1000F00089139BB2BB633B8BC3F389139BB2FB6435
:10010000FB6DDA433B6C134001339B007B63BA6B9E
:100110007B6B9A4243D97B6B002B08D0FA6D3B6C0A
:10012000134002339B00624A1344043300E0614BE6
:100130003B637B6B002B02D07B6BDBB201E0BB6BC4
:10014000DBB287F82F307B6B002B01D0594B00E0DE
:100150000023BB627B6B002B06D0BB6BDAB27B6BE0
:10016000DBB2D31ADBB200E0002387F82730504B14
:10017000D3F814443B7EC3F3C203DBB2184697F8AE
:100180002F2097F82730396B00910192BA6A0292BA
:100190000393796DFA6BFB6CA047F8641CE0444B49
:1001A000D3F814443B7EC3F3C203DBB21946FA6DA5
:1001B0003B6C134002339B003D4A134404330093CD
:1001C000BB6B019300230293002303930846796DD0
:1001D000FA6BFB6CA047F864FA6CBB6B9A4209D1CE
:1001E000BB6B03339B08FA6D1344FB65012387F84F
:1001F000533049E0FB6C9BB2C3F309039AB23B8BCB
:1002000062F38F133B83BA6D3B6C1340BA69284984
:1002100002339B000B445A6036E03B46BB64BB692B
:10022000C3F395233B623B8BC3F38313DBB2FB61C8
:1002300000237B6411E0FB6D5A1CFA653A6C134095
:100240001B4A02339B0013445A68BB6C1A60BB6C98
:100250000433BB647B6C01337B647A6CFB699A4228
:10026000E9D3134BD3F810443B7EC3F3C203DBB294
:100270001A463D46FB6900931046796D3A6A2B4653
:10028000A047034687F8533097F85330002B02D02D
:10029000074AFB6D5360FFF7B9FE0346002B01D000
:1002A000002300E0012300BF18466037BD46B0BD03
:1002B000F0230020FC23002080B588B000AF7860D8
:1002C0000023FB774CE02A4B1A68FB7FDB001344CA
:1002D000BB61BB691B781A46012393407B61254BA8
:1002E0001A687B691340002B37D07B69DA43214BB6
:1002F0001B6813401F4A1360BB691B78184604F043
:1003000019F90346FB74BB691B781A460123934015
:100310001A46194B1B681340FA7CB96909788A4060
:1003200093421AD1FB7CBA695278012A0CBF012290
:100330000022D2B293420CBF01230023DBB2FB6048
:10034000BB695B68002B08D0BB695B68BA69117830
:10035000FA68D2B2084611469847FB7F0133FB7713
:10036000064B1B78FA7F9A42ADD32037BD4680BD3D
:100370000828002038280020342800200C280020DD
:1003800080B584B000AF78600B46FB707B680122BB
:1003900002FA03F3FB601E4B184600F075FFB860CD
:1003A000BB68002B00D030E01A4B1A68FB68134082
:1003B000002B23D1786804F0BDF80346002B06D04B
:1003C000154B1A68FB681343134A136006E0FB6879
:1003D000DA43114B1B6813400F4A13600D4B1A6828
:1003E000FB6813430B4A1360094A0C4B1B68104609
:1003F0001946002200F014FFB86006E0FB68DA43FB
:10040000044B1B681340034A13601037BD4680BD80
:10041000142800203828002034280020102800202C
:1004200080B588B000AFF8600B467A60FB727B68DD
:10043000042B01D807234AE003F0A4FF034683F00E
:100440000103DBB2002B07D003F060FFF861FB690A
:10045000002B01D0FB693AE01F4AFB6813601F4A7A
:10046000FB7A13701E4A7B6813601E4B00221A60D1
:100470001D4B00221A601FE0FB7ADB00FA68134470
:10048000BB6103233B7500237B750023BB750023F1
:10049000FB75BB699B787B75BB691B781A4607F1B6
:1004A000140310461946114A03F07EFFF861FB69F8
:1004B000002B01D0FB690AE0FB7A5A1EFA72002B6E
:1004C000DAD10B4800210B4A00F076FE03461846AD
:1004D0002037BD4680BD00BF082800200C28002022
:1004E0001028002034280020382800208103020032
:1004F000AC0E0300B902020080B582B000AF002349
:100500007B600CE00B4B1A687B68DB0013441B78A4
:100510001846012103F0A2FF7B6801337B60064B84
:100520001B781A467B689A42ECD800231846083795
:10053000BD4680BD082800200C28002080B586B06C
:1005400000AF78600023BB8100233B617B687B6147
:1005500007F10C0344F2010000211A4600F004F8F0
:100560001837BD4680BD00BF80B584B000AFF860CD
:10057000B9607A6001200649FFF7B2FCFFF716FC6C
:1005800000BFFFF755FD0346002BFAD1FFDE00BF89
:10059000B00E030080B483B000AF0346FB7108497E
:1005A00097F907305B09FA7902F01F02012000FA7F
:1005B00002F241F823200C37BD465DF8047B7047FA
:1005C00000E100E080B483B000AF0346FB7109494D
:1005D00097F907305B09FA7902F01F02012000FA4F
:1005E00002F2203341F823200C37BD465DF8047B2E
:1005F000704700BF00E100E080B483B000AF034665
:10060000FB71094997F907305B09FA7902F01F027B
:10061000012000FA02F2403341F823200C37BD4696
:100620005DF8047B704700BF00E100E080B483B058
:1006300000AF0346FB71094997F907305B09FA7966
:1006400002F01F02012000FA02F2603341F8232079
:100650000C37BD465DF8047B704700BF00E100E049
:1006600080B483B000AF03463960FB7197F907305F
:10067000002B0BDA0D49FB7903F00F03043B3A68BA
:10068000D2B25201D2B20B441A7609E0084997F966
:1006900007303A68D2B25201D2B20B4483F8002339
:1006A0000C37BD465DF8047B704700BF00ED00E0ED
:1006B00000E100E080B483B000AF78607B6803F0B5
:1006C0000303002B0CBF01230023DBB218460C37B9
:1006D000BD465DF8047B704780B485B000AF78609C
:1006E000254BFB607B68002B40D0244B1A68F968CF
:1006F0007B6800BF00BF00BF00BF00BF00BF00BFDE
:1007000000BF8A422FD000BF00BF00BF00BF00BFA4
:1007100000BF00BF00BF00BF00BF00BF00BF00BFE1
:1007200000BF00BF00BF00BF00BF00BF00BF00BFD1
:1007300000BF00BF00BF00BF00BF00BF00BF00BFC1
:1007400000BF00BF00BF00BF00BF00BF00BF00BFB1
:1007500000BF00BF00BF00BF00BF00BF00BF00BFA1
:1007600000BF00BF00BF013BC3D17B601437BD4653
:100770005DF8047B704700BF0024F400B021002026
:1007800080B582B000AF7860054A7B68C2F8083552
:1007900011200621FFF764FF0837BD4680BD00BF6A
:1007A0000010014080B500AF0C4B4FF48032C3F80D
:1007B00044230A4B4FF48032C3F804231120FFF77F
:1007C00035FF1120FFF7E6FE044B01221A602F20AF
:1007D000FFF782FF024B01221A7080BD001001401A
:1007E0005C28002080B500AF1120FFF7EBFE0E4B18
:1007F0004FF48032C3F848230B4B4FF48032C3F8D8
:100800000823094B01225A602F20FFF765FF064B92
:1008100001229A60054B00221A602F20FFF75CFF2F
:10082000034B00221A7080BD0010014048280020B0
:100830005C28002080B400AF034BD3F80435184681
:10084000BD465DF8047B70470010014080B483B062
:1008500000AF786039607A683B68D31A23F07F4331
:1008600018460C37BD465DF8047B704780B483B0F2
:1008700000AF7860044A7B68C2F840350C37BD464B
:100880005DF8047B704700BF0010014080B487B062
:1008900000AF7860294B1B68002B03D1274A7B6887
:1008A000136045E07B681A68244B1B681B689A42FA
:1008B00010D8224B1B68214A126811687A681268A6
:1008C0008A1A1A601D4B1A687B68DA611B4A7B68BA
:1008D00013602DE07B681B68FB60184B1B687B6115
:1008E000164B1B683B6109E03B691B68FA68D31A29
:1008F000FB603B697B613B69DB693B613B69002BCA
:1009000004D03B691A68FB689A42EDD33B69002B1F
:1009100005D03B691A68FB68D21A3B691A607B688C
:10092000FA681A607B683A69DA617B697A68DA6129
:100930001C37BD465DF8047B704700BF442800208B
:1009400080B487B000AF7860224B1B687B617B6905
:100950003B6109E03A697B689A4200D107E03B6954
:100960007B613B69DB693B613B69002BF2D13B69F1
:10097000002B00D128E07A693B699A4211D1154BCE
:100980001B68DB69134A1360124B1B68002B08D1EC
:10099000114B01229A60114B00221A60104B012268
:1009A0001A703B691B68FB603B69DA697B69DA6135
:1009B0007B69DB693B613B69002B05D03B691A68A9
:1009C000FB681A443B691A601C37BD465DF8047B1E
:1009D000704700BF44280020001001404828002034
:1009E0005D28002080B500AF1120FFF705FE80BD17
:1009F00080B500AF1420FFF7FFFD80BD80B584B047
:100A000000AF7860104B1B68002B13D00E4B1B6897
:100A10007A6851697A689269084611469847F86081
:100A2000FB68BB60BB68002B03D0B868FFF786FD8E
:100A300006E005E07B685B697A6892691046984732
:100A40001037BD4680BD00BF5828002080B584B057
:100A500000AF2A4B1B68002B4DD000237B60FFF7B3
:100A6000E9FE0246264B1B6810461946FFF7EEFECC
:100A7000B860224B1B68FB601EE0FB681A68BB680D
:100A80009A4200D91BE0FB681B68BA68D31ABB60A6
:100A9000FB681B687A6813447B60FB683B60FB68FB
:100AA000DB69FB603B681B7C002B05D03B680022A8
:100AB0001A743868FFF7A2FFFB68002BDDD1114BD9
:100AC0001A78114B1B789A420CD10F4B1B780133CB
:100AD000DAB20D4B1A700C4B1B78022B02D10A4B69
:100AE00000221A70084B1B781946084A7B6842F8A6
:100AF0002130FFF77DFF1037BD4680BD4428002020
:100B00004828002054280020552800204C28002088
:100B100080B483B000AF7860194B1A78194B1B78FA
:100B20009A4223D0164B1B780133DAB2144B1A7059
:100B3000134B1B78022B02D1114B00221A70104B61
:100B40001B781A46104B53F822207B681A607B688A
:100B50001A680E4B1B6813440C4A13600B4B1B683E
:100B600023F07F43094A1360012303E07B680022DE
:100B70001A60002318460C37BD465DF8047B7047A9
:100B800054280020552800204C2800204828002008
:100B900080B584B000AF244B1B78FB73234B1B68DC
:100BA000BB602FE0204B5968FA7B13465B0013446F
:100BB000DB000B447B60FB7B0133FB731A4B9B78A0
:100BC000FA7B9A4201D10023FB737B681B78022BCE
:100BD00002D0032B10D014E07B685B681846FFF747
:100BE000AFFE0FE0114B1B683B603B6800221A749C
:100BF0003B68DB690D4A13600C4B1B68002BF1D17D
:100C000000E000BF084B5B78FA7B9A42CAD1074BE1
:100C10001A68BB689A4214BF01230023DBB218464E
:100C20001037BD4680BD00BF3C280020442800206E
:100C300080B489B000AFF860B9607A600023FB61CE
:100C400038E0214B1B68BB61BB691A68FB689A429C
:100C500006D9BB691A68FB68D21ABB691A602DE015
:100C6000BB691B68FA68D31AFB60BB691B68FA6929
:100C70001344FB61BB6900221A60134B1B687B6144
:100C8000BB69DB69104A1360BB69DB68002B11D0BC
:100C9000BA68FB69134423F07F42BB695A60BB69A1
:100CA000DA68BB699A607B681A68BB69DA617B683D
:100CB0007A691A60044B1B68002BC2D12437BD46E9
:100CC0005DF8047B704700BF4428002080B586B0E3
:100CD00000AF7860504B1B683B6185E07B68002B60
:100CE00005D07B687B617B69DB697B603CE04B4BBB
:100CF0005A684A4B1B7819460B465B000B44DB00D5
:100D00001344FB60454B1B780133DAB2434B1A7036
:100D1000424B1A78414B9B789A4202D13F4B0022BA
:100D20001A70FB685B687B61FB681B78012B03D141
:100D30007B691B7C002B00D056E0FB689A687B69BE
:100D40005A60FB68DA687B699A60FB681A697B699C
:100D5000DA60FB685A697B699A61314B1B78002B1A
:100D600002D07B6900225A607B695A682D4B1B6850
:100D7000D31A23F07F432C4A93420ED87B695A68DA
:100D8000284B1B6810461946FFF760FD02467B6939
:100D90009B681A447B691A6017E0224B1A687B69CA
:100DA0005B6810461946FFF751FDB8607B699A6889
:100DB000BB689A4206D97B699A68BB68D21A7B697C
:100DC0001A6002E07B6900221A607B6900225A6087
:100DD0007B6900229A607B6901221A747B69002278
:100DE000DA617869FFF752FD7B68002B7FF476AFFC
:100DF0000A4B1A78094B5B789A427FF46FAF064B27
:100E00001A683B699A4214BF01230023DBB21846DB
:100E10001837BD4680BD00BF442800203C28002074
:100E20005D28002048280020FEFF7F0090B589B093
:100E300000AF7860274B1B68002B45D0254B1B6803
:100E40001B68FB61FFF7F6FCB861234B1B687B61F5
:100E5000B8697969FFF7FAFC034603333B611F4B1E
:100E60001B7883F00103DBB2002B01D0FFF79AFC63
:100E70003A69FB69934238BF13467A6913447B6130
:100E80007B6923F07F437B617869FFF7EFFCFFF715
:100E9000D1FCF860F868B969FFF7D8FC0346DC1CA0
:100EA0007869B969FFF7D2FC03469C420BD9FFF77A
:100EB000C1FC03461846FFF7D9FC2F20FFF70CFCB6
:100EC000FFF790FD02E001E0FFF78CFC2437BD4600
:100ED00090BD00BF44280020482800205C28002046
:100EE00080B586B000AF00237B60184B1B683B6168
:100EF000174B1B68FB603B461846FFF709FE03468D
:100F0000FB72FFF745FE0346FB75FB7A002B08D00A
:100F10003A683B1D104639691A46FFF789FE0123DE
:100F2000FB757B681846FFF7D1FE0346002B01D006
:100F30000123FB75FB7D002B02D0F868FFF776FFDD
:100F4000044B00221A701837BD4680BD4828002087
:100F5000442800205D28002080B483B000AF034601
:100F6000FB71044AFB7953700C37BD465DF8047B76
:100F7000704700BF3C28002080B485B000AF786087
:100F8000134B5B780133FB73114B9B78FA7B9A42CE
:100F900001D10023FB730E4B1B78FA7B9A4201D1DF
:100FA00000230EE07B68FA7B1A70094B5A68084BE5
:100FB0005B7819460B465B000B44DB001344BB60B7
:100FC000BB6818461437BD465DF8047B704700BF08
:100FD0003C28002080B588B000AFF860B9607A6026
:100FE0003B600023FB610023BB7507F11603184625
:100FF00000F0E8F907F117031846FFF7BDFFB861E5
:10100000BB69002B02D10423FB6117E0BB690122FD
:101010001A70BB69FA685A60FFF70CFC0246BB699C
:101020009A60BB69BA68DA60BB697A681A61BB69A1
:101030003A685A61FB7D1846FFF78EFFBB7D184664
:1010400000F0CAF9FB69002B01D1FFF7D1FCFB6965
:1010500018462037BD4680BD80B586B000AF7860A9
:101060000B46FB7000237B610023BB7307F10E036B
:10107000184600F0A7F907F10F031846FFF77CFFA9
:1010800038613B69002B02D104237B6109E03B6995
:10109000FA781A703B697A685A60FB7B1846FFF74A
:1010A0005BFFBB7B184600F097F97B69002B01D1F1
:1010B000FFF79EFC7B6918461837BD4680BD00BF10
:1010C00080B500AF0D4B0022C3F840210B4B00222E
:1010D000C3F84421094B0022C3F84821074B0022E2
:1010E000C3F84C21054B0022C3F80021034B00221A
:1010F000C3F80421FFF7AAFC80BD00BF0010014027
:1011000080B500AFFFF7ECFE80BD00BF80B584B0B6
:1011100000AFF8607A603B600B46FB727868FFF7BF
:10112000C9FA034683F00103DBB2002B01D0072389
:1011300031E07B68002B01D107232CE0FFF752FB45
:10114000174A3B681360174B00221A70154B002298
:101150005A70144AFB7A9370124A7B685360124BA0
:1011600000221A60114B00221A70114B00221A70D3
:101170001420FFF75BFA14200621FFF771FA142000
:10118000FFF708FAF868FFF7FBFAFFF753FB024690
:10119000084B1A60002318461037BD4680BD00BFBB
:1011A000582800203C2800204428002054280020F3
:1011B000552800204828002080B487B000AFF86090
:1011C0000B467A60FB72154B5B68002B01D108233C
:1011D0001DE07B68002B01D1072318E0FB68002B82
:1011E00001D1072313E0FB681B681B7C002B01D097
:1011F00008230CE0FB681B687B617B6900221A7482
:101200007B69FA7A5A747B697A685A6100231846B6
:101210001C37BD465DF8047B704700BF3C280020AA
:1012200080B586B000AFF860B9607A60FB687B611A
:10123000144B5B68002B01D108231EE0FB68002BD8
:1012400001D1082319E0BB68042B01D8072314E05F
:101250007B695B69002B01D108230EE07B695B7C15
:10126000012B01D1BB6800E000233B617869B968BC
:101270003A697B68FFF7AEFE034618461837BD464D
:1012800080BD00BF3C28002080B584B000AF7860EE
:101290007B68FB600D4B5B68002B01D1082310E0DD
:1012A0007B68002B03D0FB685B69002B01D108230E
:1012B00007E0FB6800221A74F8680221FFF7CCFEF1
:1012C000034618461037BD4680BD00BF3C280020AD
:1012D00080B483B000AFEFF310833B603B687B606A
:1012E00072B67B6818460C37BD465DF8047B7047C4
:1012F00080B400AF62B6BD465DF8047B704700BFA6
:1013000080B584B000AF7860FFF7E2FFF860164B5D
:101310009B68002B1BD1144B01229A60134BD3F80E
:101320008020134B1340104A1360104B104AC3F82F
:1013300080200E4BD3F884300B4A53600B4B4FF098
:10134000FF32C3F884207B6800221A7002E07B68B9
:1013500001221A70FB68002B01D1FFF7C9FF00239F
:1013600018461037BD4680BD5C37002000E100E024
:10137000FC06FFBC80B584B000AF0346FB710F4B89
:101380009B68002B15D0FB79002B12D1FFF7A0FF33
:10139000F8600B4A094B1B681360094A074B5B68EE
:1013A0005360064B00229A60FB68002B01D1FFF7C7
:1013B0009FFF002318461037BD4680BD5C370020D4
:1013C00000E100E080B582B000AF78607868FFF798
:1013D00097FF0837BD4680BD80B582B000AF034699
:1013E000FB71FB791846FFF7C5FF0837BD4680BD86
:1013F00080B483B000AF78607B6803F00303002BF8
:101400000CBF01230023DBB218460C37BD465DF844
:10141000047B704780B483B000AF0346FB71064B7A
:101420001A78FB791343DAB2034B1A700C37BD46B6
:101430005DF8047B704700BF5E28002080B483B055
:1014400000AF0346FB71FB79DB43DAB2064B1B7836
:10145000DBB21340DBB2DAB2034B1A700C37BD4675
:101460005DF8047B704700BF5E28002080B483B025
:1014700000AF0346FB71084B1A78FB791340DBB2CF
:10148000002B14BF01230023DBB218460C37BD46E6
:101490005DF8047B704700BF5E28002080B584B0F3
:1014A00000AF78600023FB600EE00A4AFB6852F848
:1014B0002330002B05D0074AFB6852F823307868A8
:1014C0009847FB680133FB60FB68072BEDD91037A9
:1014D000BD4680BD6028002080B483B000AF786036
:1014E00039607B681B78013B052B5BD801A252F861
:1014F00023F000BF0D15020015150200351502007E
:1015000067150200871502009D1502003B68002246
:101510001A7048E03B6801221A707B681A893B68A0
:101520009A817B689A883B68DA817B68DA683B68D5
:101530009A6038E03B6802221A707B681A893B681F
:101540009A817B689A883B68DA817B68DA683B68B5
:101550009A607B681B7C062B0CBF01230023DAB248
:101560003B681A741FE03B6803221A707B68DA88B4
:101570003B689A817B681A893B68DA817B68DA6804
:101580003B689A600FE03B6804221A707B68DA8837
:101590003B689A813B680022DA8104E03B680522BF
:1015A0001A7000E000BF0C37BD465DF8047B704741
:1015B00080B483B000AF78607B689B884FF6FF7281
:1015C000934205D07B681B88002B01D0012300E0EB
:1015D000002303F00103DBB218460C37BD465DF86B
:1015E000047B704780B582B000AF78607B68002BC9
:1015F00011D00D4B1A687B689A420CD80A4B5A6876
:101600007B689A4207D37868FFF7F2FE0346002B07
:1016100001D0012300E0002303F00103DBB21846F0
:101620000837BD4680BD00BFC021002080B584B012
:1016300000AF786039600023FB6012E0FB68DB00DC
:101640007A6813441B681846FFF7D2FE034683F0FE
:101650000103DBB2002B01D0002307E0FB6801335C
:10166000FB60FA683B689A42E8D3012318461037BA
:10167000BD4680BD80B483B000AF78607B681B68D6
:101680000C4A934201D003230DE07B6804331B68AE
:10169000094A934204D0094A934203D1012302E04C
:1016A000002300E0032318460C37BD465DF8047B99
:1016B000704700BFDEC0ADDEFE011EF1FF011EF16E
:1016C00080B485B000AF78600023FB600CE0FB685D
:1016D0009B007A6813441B68B3F1FF3F01D00023DD
:1016E00007E0FB680133FB60FB68B3F5806FEED366
:1016F000012318461437BD465DF8047B704700BFD0
:1017000080B483B000AF03460A46FB801346BB801B
:10171000FB880F4A1B01134408331A88BB88134403
:10172000BB80FB880A4A1B01134408335A88BB88D4
:101730001344BB80BB8840F2FF32934294BF012325
:101740000023DBB218460C37BD465DF8047B7047BA
:101750004429002080B485B000AF786039600A2346
:10176000FB6000237B811AE07B89124A1B01134432
:101770005A683B689A420FD27B890E4A1B01134478
:101780005B6803F580523B689A4205D90023FB60F1
:101790007B687A891A8005E07B8901337B817B89AC
:1017A000012BE1D9FB6818461437BD465DF8047B70
:1017B000704700BF4429002080B588B000AFF860B2
:1017C000B9607A60FB6803F58053BB610023FB7747
:1017D000FB680833FB60BB6802221A8028E0FB68C4
:1017E0007B617869FFF7E4FE034683F00103DBB217
:1017F000002B02D00123FB7709E07B699A68154B27
:101800001B689A4203D97B699B68124A13607B6903
:101810005B8803339B00FA681344FB60BB681A883B
:101820007B695B8813449BB203339AB2BB681A800E
:10183000FA68BB699A4204D2FB681B68B3F1FF3FA8
:10184000CDD17B68002B02D07B68FA7F1A702037DD
:10185000BD4680BD8028002080B483B000AF786092
:101860000B467B807B681A897B8813449BB20333C9
:101870009AB27B681A817B685A897B88D31A9BB29B
:10188000033B9AB27B685A810C37BD465DF8047BF6
:10189000704700BF80B582B002AF074B1A680023C3
:1018A000009306481146064A022301F04BFE034608
:1018B0001846BD4680BD00BF64290020C02100201D
:1018C000CC0E030080B584B002AF78600023009393
:1018D00005487968054A022301F034FE034618469C
:1018E0000837BD4680BD00BFC0210020D40E0300D4
:1018F00080B584B000AF03463960FB800023FB73E2
:10190000FB8803337B817B8940F2FD32934201D90E
:10191000092334E00023BB8128E0BB891A4A1B015C
:1019200013441B78002B1ED1BA897B8910461946B7
:10193000FFF7E6FE0346002B15D00123FB733B683F
:10194000BA891A80BB89BA890F4912010A44083240
:1019500051887A890A4491B20B4A1B011344083317
:101960000A465A8005E0BB890133BB81BB89012B44
:10197000D3D9FB7B002B01D0002300E007231846BE
:101980001037BD4680BD00BF4429002080B483B01D
:1019900000AF03460A46FB801346BB80BB88BA886B
:1019A0000A4912010A4408325188FA888A1A92B206
:1019B000033A91B2054A1B01134408330A465A8080
:1019C0000C37BD465DF8047B704700BF44290020FA
:1019D00080B400AF054B1B680133044A1360034B0E
:1019E0001B681846BD465DF8047B704780280020C0
:1019F00080B584B000AF03463960FB803B681B684C
:101A0000FB60FB68002B09D0FB68BB60BB685B8890
:101A100003339B00FA681344FB6006E0FB88174A17
:101A20001B0113445B680833FB6013E0FB68BB6079
:101A3000B868FFF7BDFD0346002B04D03B68FA6889
:101A40001A60012316E0BB685B8803339B00FA68C9
:101A50001344FB60FB88094A1B0113445B6803F5D0
:101A60008052FB689A4204D9FB681B68B3F1FF3FC0
:101A7000DCD1002318461037BD4680BD4429002024
:101A800080B584B000AF786039607B685B681846C9
:101A9000FFF7A8FD0346002B19D07B681A89254B58
:101AA0001B899A4213D17B681A687B685B689B68C4
:101AB0009A420CD17B685B6838681946FFF74AFE8A
:101AC0000346002B0CBF01230023DBB22DE03B6853
:101AD00000221A8024E00023BB6010E0BB68FB609A
:101AE000FB689A687B681B689A4208D1BA687B6871
:101AF0005A60104B1A897B681A81012315E03B68F4
:101B00001A8807F1080310461946FFF771FF0346CC
:101B1000002BE3D13B681B8801339AB23B681A80E3
:101B20003B681B88012BD6D9002318461037BD46C9
:101B300080BD00BF6C29002080B586B000AFF86082
:101B4000B9607A603B600220FFF790FC034683F0A7
:101B50000103DBB2002B01D002234FE07B68002B96
:101B600002D03B68002B01D1052347E041E03B68F0
:101B70009B88244A1B0113441B78002B00D032E0C1
:101B800024E03B681B687B61FB68002B06D07B6907
:101B90009A88FB681B889A4200D017E0BB68002B2C
:101BA00006D07B691A88BB681B889A4200D00DE07A
:101BB0007B699A687B681A603B681A687B685A6020
:101BC000114B1A897B681A81002317E03B689A88B9
:101BD0003B6810461946FFF70BFF0346002BD0D198
:101BE0003B6800221A603B689B8801339AB23B68CD
:101BF0009A803B689B88012BB9D90A23184618376D
:101C0000BD4680BD442900206C29002080B500AF6E
:101C1000124B1A6F1346DB009B1A9B000F4A1344AA
:101C2000184600211C22FDF78DFC0C4B5B6F002B2E
:101C30000BD00A4B1B6F013303F00303074A1367F2
:101C4000064B5B6F013B054A5367044B5B6F002BF0
:101C500014BF01230023DBB2184680BD8428002076
:101C600080B483B000AF78607B681B68084A9342F9
:101C700006D07B681B6803F108027B681A6002E0EB
:101C80007B68044A1A600C37BD465DF8047B7047D8
:101C900034290020FC28002080B483B000AF786095
:101CA0000D4B5B6C002B12D00B4B1B6CDB000A4AFC
:101CB0001A447B681A60084B1B6C013303F007035E
:101CC000054A1364044B5B6C013B034A53640C37B5
:101CD000BD465DF8047B7047FC28002080B483B0CB
:101CE00000AF78607B681B78022B03D07B681B7881
:101CF000032B0DD1094B1B6C7A68927D1344074A64
:101D00001364064B5B6C7A68927D9B1A034A53649A
:101D10000C37BD465DF8047B704700BFFC280020EF
:101D2000B0B588B000AFF860B9607A600023FB7787
:101D30002E4B5B6F032B54D82D4B5A6CBB68C3F1F1
:101D400008039A424DD8294B5A6F284B1B6F1344F6
:101D500003F003037B6125497A691346DB009B1A74
:101D60009B00CA18FB6814461D460FCD0FC495E8AA
:101D7000070084E807001D4B5B6F01331B4A536764
:101D8000BB68002B2BD01A4B5A6C194B1B6C13449D
:101D900003F007037B617B69DB00154A13443B6159
:101DA0000023BB6111E03969BB69DB007A681A4422
:101DB0000B4692E8030083E8030007F1100318467E
:101DC000FFF74EFFBB690133BB61BA69BB689A423A
:101DD000E9D3074B5A6CBB681344054A536401238B
:101DE000FB77FB7F18462037BD46B0BD8428002016
:101DF000FC28002080B586B000AF00237B61002363
:101E00007B8200237B740023FB819FE0544B1B6883
:101E1000FA8912031344BB60B868FFF72BFC034632
:101E2000FB71FB79012B61D0032B02D0002B3AD040
:101E300089E0B868FFF744FC0346002B2AD0494BE1
:101E40001B68002B19D07B8A474A1B0113440222CE
:101E50001A707B8A444A1B011344BA685A607B8A11
:101E6000414A1B011344083302221A803F4A7B8AED
:101E700053807B8A01337B8207E03A4ABB68136058
:101E8000384B02229A8001237B747B6943F0010363
:101E90007B6158E07B8A5A1C7A82334A1B011344C7
:101EA00003221A704FE07B8A2F4A1B011344002241
:101EB0001A707B8A2C4A1B011344BA685A607B8AC9
:101EC0001B010833284A99187B8A1B010833264ACC
:101ED00013440633B8681A46FFF76EFC7B6943F07B
:101EE00002037B617B8A01337B822CE07B7C002BAD
:101EF00016D07B8A1C4A1B01134402221A707B8A6B
:101F0000184A126818491B010B445A607B8A164A0A
:101F10001B011344083302221A807B8A01337B821F
:101F2000104ABB681360B86811490022FFF744FCEF
:101F30000C4B9B88022B01D1042300E008237A6913
:101F400013437B6100BFFB890133FB81FB89022BBB
:101F50007FF65CAF7B69DBB218461837BD4680BDA3
:101F6000C021002064290020442900206C29002081
:101F70006829002080B586B002AF786039607B6840
:101F80001A1D002300930A483968012301F0DAFA88
:101F90000346FB607B6802221A74FB68002B01D1A8
:101FA000002300E00E2318461037BD4680BD00BF59
:101FB000C021002080B586B002AF786039603B68F0
:101FC00003F108017B6803F10C02002300930C4825
:101FD000012301F0B7FA0346FB607B689B7D002B71
:101FE00001D0032200E001227B681A74FB68002BF9
:101FF00001D1002300E00E2318461037BD4680BDF6
:10200000C021002080B586B002AF786039603B689F
:10201000191D7B6803F10802002300930C4801237B
:1020200001F090FA0346FB607B681B78032B01D11B
:10203000052200E006227B681A74FB68002B01D1A0
:10204000002300E00E2318461037BD4680BD00BFB8
:10205000C021002080B586B002AF786000230093D5
:1020600008487968084A012301F06CFA0346FB73BB
:10207000FB7B002B01D1002300E00E231846103714
:10208000BD4680BDC0210020C80E030080B588B0C9
:1020900000AF786007F1080300221A6004330022C1
:1020A0001A60043300221A6004337B68DB68BB606B
:1020B00007F1080207F1160310461946FFF7E0FC86
:1020C0000346002B16D0FB68BB61BB699A887B680E
:1020D000DA80BB691A887B681A81FB681846FFF7AB
:1020E000B9FFF861FB8A074A1B0113440833012238
:1020F0009A7101E00A23FB61FB6918462037BD464F
:1021000080BD00BF4429002080B586B000AF786054
:102110007B689A1D07F10803104600211A460F4BF1
:10212000FFF70AFD78617B69002B0DD1FB6818462B
:10213000FFF790FF7861094B9B88094A1B01134404
:10214000083301229A7104E0044800210822FDF7B7
:10215000F9F97B6918461837BD4680BD7C290020F7
:102160004429002090B587B002AF78603960002321
:10217000BB6007F108031846FFF78EFD7B689B8A5A
:102180009B003A68D118BB681A68BB689C8800231A
:1021900000931248234601F0D5F90346FB607B68A3
:1021A0009A8ABB689B8813449AB27B689A827B6840
:1021B0009B7D013BDAB27B689A757B689B7D002B27
:1021C00002D17B6801221A74FB68002B01D1002325
:1021D00000E00E2318461437BD4690BDC0210020F4
:1021E00080B483B000AF144B1B8901339AB2124BF9
:1021F0001A81114B00225A800F4B00221A730023C0
:10220000FB8011E0FB88FA880C4912010A4412781D
:10221000002A0CBF01220022D1B2074A13440A4609
:102220009A72FB880133FB80FB88012BEAD90C37BB
:10223000BD465DF8047B70476C29002044290020CE
:1022400080B485B000AF78600023FB730023BB81AE
:1022500023E0BB89164A13449B7A002B1AD0BB8912
:10226000134A134400229A72BB89124A1B01134479
:1022700008339B88002B0DD1BB890E4A1B011344E8
:1022800008339B79002B05D07B68BA891A8001231B
:10229000FB7305E0BB890133BB81BB89012BD8D916
:1022A000FB7B18461437BD465DF8047B704700BFC2
:1022B0006C2900204429002080B500AF084B05227E
:1022C0001A70084B02229A80064B1B680648194672
:1022D0000122002301F0A0F90346184680BD00BF8B
:1022E0006C29002064290020C021002080B582B024
:1022F00000AF124B5B887B807B88114A1B01134423
:1023000008339B88002B10D17B880D4A1B01134496
:102310005B680C4819460122002301F07DF9034651
:102320007B60064B04221A7002E0FFF7C5FF78605D
:102330007B6818460837BD4680BD00BF6C29002069
:1023400044290020C021002090B587B002AF104B77
:102350005B68FB600F4B1A680E4B9B889B00134415
:10236000BB60FB685B880333FB80094B03221A7058
:10237000074B5A68FC88002300930748B968234636
:1023800001F0E0F8034618461437BD4690BD00BF83
:102390006C29002064290020C021002080B582B073
:1023A00000AF0A4B5B8818460949FFF721FB03463B
:1023B000002B03D0FFF7C8FF786002E0FFF796FF1D
:1023C00078607B6818460837BD4680BD6C290020C0
:1023D0007029002080B500AF074B06221A70064B0B
:1023E0005B88064A1B0113445B681846FFF76AFACC
:1023F0000346184680BD00BF6C29002044290020F8
:1024000080B500AF054B07221A70044B00225A60BA
:10241000FFF740FA0346184680BD00BF6C29002034
:1024200080B500AF0C48FFF70BFF034683F00103B4
:10243000DBB2002B0BD0094B00221A70074B002295
:102440005A80064B00225A6041F61D5302E0FFF706
:10245000A5FF0346184680BD6E2900206C29002088
:1024600080B483B000AF094B5B687B607B685B889E
:1024700003337B80064B9A887B8813449AB2044BC3
:102480009A800C37BD465DF8047B70476C290020AC
:102490006429002080B483B000AF124B1B687B60BE
:1024A000114B5B88114A1B0113445B680D4A136092
:1024B0000D4B5B880D4A1B0113447A685A600A4B26
:1024C0005B881846074B9988084A03011344083370
:1024D0000A461A80034B02229A800C37BD465DF8EB
:1024E000047B7047642900206C29002044290020C7
:1024F00080B500AF194B1B78072B2DD801A252F8DD
:1025000023F000BF252502005925020059250200AD
:10251000312502003D25020049250200492502001F
:1025200051250200FFF75CFE0C4B01221A7014E0EB
:10253000FFF796FF094B02221A700EE0FFF7AAFF81
:10254000064B06221A7008E0044B07221A7004E0BA
:10255000024B01221A7000E000BF80BD6C290020F0
:1025600080B586B000AF786039600F237B617B68EF
:10257000002B04D00120FEF761FF012395E03B68AA
:102580001B79032B00F2878001A252F823F000BFD1
:10259000A1250200AF2502001726020039260200FD
:1025A000FFF778F978613B6801221A7174E0002323
:1025B000FB7400233B821BE03B8A3E4A1B01134411
:1025C0001B78022B11D13B8A3A4A1B0113445B68EA
:1025D0001846FFF777F978613B8A364A1B011344A6
:1025E00000221A700123FB7405E03B8A01333B8211
:1025F0003B8A012BE0D9FB7C83F00103DBB2002B8B
:1026000008D00220FEF706FF0120FEF717FF41F673
:102610001D534AE040E0284B1B6828481946012218
:10262000002300F0F9FF03467B61234B02229A80CE
:102630003B6800221A712FE01F4B1B681846FFF7FA
:1026400041F978611E4B5B88FB811B4B1B68BB60AB
:10265000FB89184A1B0113445B68174A1360FB8906
:10266000144A1B011344BA685A60FB89124A9188C4
:10267000104A1B01134408330A461A800E4B0222EB
:102680009A80FB890B4A1B01134400221A703B6895
:1026900000221A7100E000BF7B69002B04D00120EA
:1026A000FEF7CCFE0E2300E0002318461837BD4687
:1026B00080BD00BF4429002064290020C0210020E3
:1026C0006C29002080B586B000AF786039603B6827
:1026D0005B8A1B013A4A13443B617B68002B07D09D
:1026E0003B68DB8838691946FFF7B6F8012363E0D9
:1026F0003B695A683B691B899B001344FB603B683C
:102700001B7C062B4BD801A252F823F05327020062
:10271000772702005F2702006B27020029270200AB
:102720008327020097270200264B00225A603B684D
:102730009B69244A136007F10A0322481946FFF7F0
:102740009FF9034683F00103DBB2002B01D00A237B
:1027500032E03868F968FFF70DFC786122E03868EC
:10276000F968FFF727FC78611CE03868F968FFF723
:10277000F9FC786116E03868F968FFF743FC786186
:1027800010E0104B5B681846FFF764FC78613B680B
:1027900006221A7406E041F61D537B6102E00F2306
:1027A0007B6100BF7B69002B05D03B68DB88386903
:1027B0001946FFF751F87B6918461837BD4680BDAA
:1027C000442900208429002080B584B000AF7860BF
:1027D00039607B68002B01D0012323E03B681B7923
:1027E000012B0BD0022B15D0002B17D13868FFF727
:1027F0004DFCF8603B6802221A7112E03868FFF75E
:1028000083FCF860FB680A2B03D141F61D53FB6083
:1028100007E006E041F61D53FB6002E00F23FB607A
:1028200000BFFB6818461037BD4680BD80B584B038
:1028300000AF78607B68002B01D001233CE0204B87
:102840001B7B002B03D01E4B00221A7301E0FFF705
:102850004FFE1B4B1B78013B062B29D801A252F8D7
:1028600023F000BF8128020089280200912802007D
:1028700099280200B1280200A1280200A92802001C
:10288000FFF7CEFDF86016E0FFF788FDF86012E074
:10289000FFF75AFDF8600EE0FFF728FDF8600AE048
:1028A000FFF798FDF86006E0FFF7AAFDF86002E088
:1028B0000F23FB6000BFFB6818461037BD4680BD84
:1028C0006C29002080B58AB000AF0346FB71324B03
:1028D0001A6F1346DB009B1A9B002F4A13443B627E
:1028E0003B6A1B78013B052B29D801A252F823F043
:1028F00009290200172902001729020025290200D0
:102900002529020033290200FB791846396AFFF7AE
:1029100027FE786216E0FB791846396AFFF7D2FE87
:1029200078620FE0FB791846396AFFF74DFF78624D
:1029300008E0FB791846FFF779FF786202E00F2381
:102940007B6200BF7B6A002B23D07B6A41F61D525D
:10295000934202D100233B6104E07B6A3B61386A09
:10296000FFF7BCF907F10C03386A1946FEF7B4FD0E
:1029700007F10C031846FEF791FDFFF747F90346F0
:10298000002B03D00020FFF79DFF02E00420FEF79C
:1029900055FD2837BD4680BD8428002080B500AF96
:1029A0000420FEF763FD034683F00103DBB2002B36
:1029B00005D00420FEF72EFD0020FFF783FF80BD29
:1029C00080B582B000AF78600B46FB70FB7818468C
:1029D000FFF778FF0837BD4680BD00BF80B590B0D7
:1029E00000AFF860B9607A60FB700023FB860023BB
:1029F000FB870220FEF73AFD034683F00103DBB2BA
:102A0000002B01D002239CE0BB68002B01D10523E1
:102A100097E0BB681B884FF6FF72934203D0BB68F8
:102A20005B88002B01D104238BE0BB685A68BB682C
:102A30001B8910461946FEF7F9FD034683F0010392
:102A4000DBB2002B01D003237BE07B68002B21D17C
:102A50000023BB630BE0BB685A68BB6BDB0013440D
:102A60009A88FB8F1344FB87BB6B0133BB63BB6846
:102A70001B891A46BB6B9A42EDD8FA8F07F11203F5
:102A800010461946FEF734FF38633B6B002B07D026
:102A90003B6B56E07B681B887B827B685B88FB878F
:102AA000FB783B75002387F824307B8AFB84BB6866
:102AB0001B89DBB287F82A3003233B85FEF788FFAA
:102AC00003463B62BB681B88BB83BB685B883B8358
:102AD000FB8F7B83FB78032B05D1042387F82430FD
:102AE000FB681B68FB62FB8EFB83BB681B89194676
:102AF000BB685B6807F1140210461A46FFF710F92D
:102B0000034683F00103DBB2002B07D07B8AFA8FE8
:102B100010461946FEF73AFF082312E0FB68002B27
:102B20000CD0FB6800225A603A6AFB681A60FB68A6
:102B300000229A72054B1A89FB681A81FFF72EFF53
:102B4000002318464037BD4680BD00BF6C290020D9
:102B500080B485B000AF78600E4B1B78082B02D193
:102B60000C23FB600EE00B4B1B7819460A4A7B686E
:102B700042F82130074B1B780133DAB2054B1A704B
:102B80000023FB60FB6818461437BD465DF8047BE4
:102B9000704700BF5F2800206028002080B58EB0FD
:102BA00000AF07F1200300221A60043300221A60EC
:102BB000043300221A60043300221A600433002216
:102BC0001A6004330220FEF751FC0346002B06D0A6
:102BD00007F120031846FEF761FC00235EE00120A8
:102BE000FEF744FC0346002B01D0002356E00120F1
:102BF000FEF710FC00F01AFCFFF7FCF8034687F81C
:102C0000373097F83730002B01D10B2346E097F887
:102C10003730062B0CD10220FEF7FCFB0120FEF71B
:102C20000DFC07F120031846FEF738FC002335E0C1
:102C300001233B7197F83730013B0A2B24D801A2BE
:102C400052F823F0712C0200892C0200712C020032
:102C5000892C0200832C0200892C0200832C0200A4
:102C6000892C0200772C02007D2C0200772C0200B8
:102C700000233B7209E003233B7206E002233B7210
:102C800003E001233B7200E000BF3B1D184600211A
:102C90000022FFF745F8FFF781FE0023184638377A
:102CA000BD4680BD80B584B000AF786039607B6878
:102CB000002B02D03B68002B01D1052328E007F14F
:102CC0000A0378681946FEF7DBFE0346002B1ED088
:102CD0007B685B68FB607B890F491A010A440832F4
:102CE0009288013291B20C4A1B01134408330A4600
:102CF0009A803B68FA681A607B685B6803F10C0293
:102D00003B685A607B6801229A72002300E00A2324
:102D100018461037BD4680BD4429002080B584B0D8
:102D200000AF78607B68002B01D105232EE007F10E
:102D30000A0378681946FEF7A3FE0346002B22D04B
:102D40007B89144A1B01134408339B88002B17D03E
:102D50007B689B7A002B13D07B890E491A010A44A9
:102D600008329288013A91B20A4A1B01134408338F
:102D70000A469A807B6800229A720023FB6004E076
:102D80000623FB6001E00A23FB60FB68184610374E
:102D9000BD4680BD4429002080B584B000AF786076
:102DA0000B467B800220FEF761FB034683F00103A4
:102DB000DBB2002B01D0022316E07B68002B01D18F
:102DC000052311E07A8807F10A0310461946FEF739
:102DD0008FFDF860FB68002B05D17A897B681A802B
:102DE0007B687A885A80FB6818461037BD4680BDDC
:102DF00080B584B000AF78600220FEF737FB034651
:102E000083F00103DBB2002B01D0022330E07B68AA
:102E1000002B01D105232BE07B681B88022B01D9F5
:102E2000042325E07B681B881B01134A1344BB6005
:102E3000BB685B891A467B685B8819466FF00203A2
:102E40005B1A1344002B10DB7B685A887B681B8855
:102E500010461946FEF79AFD7B6800221A807B68AF
:102E600000225A800023FB6001E00423FB60FB6822
:102E700018461037BD4680BD4429002080B582B079
:102E800000AF786039607868396800220223FFF764
:102E9000A5FD034618460837BD4680BD80B584B001
:102EA00000AFF860B9607A607B68002B01D1052320
:102EB00006E0F868B9687A680223FFF78FFD0346D9
:102EC00018461037BD4680BD80B582B000AF78602F
:102ED00039607B68002B01D1052306E078683968EA
:102EE00000220323FFF77AFD034618460837BD4644
:102EF00080BD00BF80B58AB000AF0346FB800220D2
:102F0000FEF7B4FA034683F00103DBB2002B01D0D5
:102F100002231BE0FB884FF6FF72934201D104238A
:102F200014E005233B7301233B74FB887B8207F18C
:102F30000C03184600210022FEF7F2FE0346002B88
:102F400003D0FFF72BFD002300E0082318462837A5
:102F5000BD4680BD80B588B000AF0220FEF786FA7E
:102F6000034683F00103DBB2002B01D0022316E0FD
:102F700006233B713B1D184600210022FEF7D0FEC0
:102F80000346002B0AD0084B1B78002B02D0064BBF
:102F900001221A73FFF702FD002300E00823184600
:102FA0002037BD4680BD00BF6C29002080B584B0AD
:102FB00000AFBA607B600346FB810B46BB8107F123
:102FC0000E0207F10C0310461946BA687B68FEF73B
:102FD000B3FD034618461037BD4680BD80B584B0AA
:102FE00000AF0346B9607A60FB8107F10E03002051
:102FF0001946BA687B68FEF79FFD034618461037EE
:10300000BD4680BD80B584B000AF0346B9607A602C
:10301000FB8107F10E0318460021BA687B68FEF7B2
:103020008BFD034618461037BD4680BD80B483B083
:1030300000AF786039607B68002B02D03B68002BC2
:1030400001D1052304E07B681A683B681A600023FD
:1030500018460C37BD465DF8047B704780B483B0DA
:1030600000AF4FF010235B697B607B68B3F1FF3FDB
:1030700001D07B6803E04FF080535B691B03184667
:103080000C37BD465DF8047B704700BF29DF7047F1
:10309000184600BF28DF7047184600BF80B586B0CD
:1030A00000AF78600B46FB7007F10803184600215B
:1030B0001022FCF747FA7B681B7A012B02D0022B07
:1030C00009D015E000233B727B681B693B617B687C
:1030D0009B8ABB820CE001233B727B689A897B68E8
:1030E000DB89D31A9BB23B827B689B897B8200BFC2
:1030F0007B685B68FB607B681B689B6807F1080165
:10310000FA780846114698471837BD4680BD00BF7B
:1031100080B483B000AF78607B68002B09D07B68F7
:10312000074A934205D37B68064A934201D20123A2
:1031300000E0002318460C37BD465DF8047B70475D
:10314000C0210020D021002080B584B000AF78607D
:103150007B689B8A1A467B68DB8AD31AB3F5806F3B
:1031600006DA7B689A8A7B68DB8AD31AFB8102E0E5
:103170004FF48063FB817B681A697B68DB8A9B0064
:10318000D1187B68DA687B68DB8A9B001A44FB896C
:10319000084611461A46FFF779FF034618461037CE
:1031A000BD4680BD80B582B000AF78607B689B89EA
:1031B0001846FFF76FFF034618460837BD4680BD27
:1031C00080B400AF0F4B5B6E013B0E4A53660D4B54
:1031D0005B6E002B06D10C4B1B7823F00203DAB296
:1031E000094B1A70074B1B6E0133064A1366054BD9
:1031F0001B6E042B02D1034B00221A66BD465DF8FC
:10320000047B7047942900209029002080B582B06B
:1032100000AF1E4B1A6E13465B001344DB001B4AC3
:1032200013443B60194B5B6E002B2CD03B681B7A20
:10323000012B02D0022B05D009E03868FFF784FF8C
:10324000786007E03868FFF7ADFF786002E0092397
:103250007B6000BF7B68112B0ED10D4B1B7823F0D8
:103260000203DAB20A4B1A70094B1B7843F00403CD
:10327000DAB2074B1A7006E07B68002B03D038687F
:103280000921FFF70BFF0837BD4680BD94290020B8
:103290009029002080B500AF0A4B1B7803F0020391
:1032A000002B0ED1074B1B7803F00403002B08D131
:1032B000044B1B7843F00203DAB2024B1A70FFF79B
:1032C000A5FF80BD9029002080B584B000AF786054
:1032D000274B00221A707B681B7A012B02D0022B2D
:1032E00028D041E07B689B8A1A467B68DB8AD31A28
:1032F000B3F5806F06DA7B689A8A7B68DB8AD31A1B
:10330000FB8102E04FF48063FB817B68DA8AFB89F2
:1033100013449AB27B68DA827B68DA8A7B689B8A7C
:103320009A4206D178680021FFF7B8FEFFF748FF00
:103330001AE019E07B689B8901339AB27B689A8115
:103340007B68DB8901339AB27B68DA817B68DA8932
:103350007B681B8A9A4206D178680021FFF79EFE9F
:10336000FFF72EFFFFE700BF1037BD4680BD00BF4F
:10337000FC29002080B582B000AF78600A4B1B7832
:103380000133DAB2084B1A70074B1B78032B08D9AC
:10339000054B00221A7078680821FFF77FFEFFF7BF
:1033A0000FFF0837BD4680BDFC29002080B584B0E2
:1033B00000AF78601C4B5B6E042B01D100232EE024
:1033C000194B1A6E184B5B6E1344032B05D8164B22
:1033D0001A6E154B5B6E134405E0134B1A6E124BBD
:1033E0005B6E1344043BFB600F4B5B6E01330E4A74
:1033F0005366FA6813465B001344DB000A4A134421
:10340000184600211822FCF79DF8FA6813465B0065
:103410001344DB00044A1A447B681A6001231846EF
:103420001037BD4680BD00BF9429002080B58AB00A
:1034300000AF414A414BD31A1B09FB603E4A3F4B48
:10344000D31A1B097B62FFF709FE38623C4B1B78DD
:1034500003F00103002B01D0002369E00023FB618E
:1034600012E0FB691B01354A1344BB60BB681B6853
:10347000002B06D0BB685B68002B02D07B6A013B47
:103480007B62FB690133FB61FA69FB689A42E8D30E
:103490000023BB6140E0BB691B01284A13447B60E9
:1034A0000023FB75BB69BB7500233B611AE03B69D8
:1034B0001B01224A13443B603B681B68002B04D06D
:1034C0003B685B68002B00D009E03B685B7BFA7DC2
:1034D0009A4204D23B685B7BFB753B69BB753B69D9
:1034E00001333B613A69FB689A42E0D3BB7D1B0123
:1034F000124A13447B607B683A6A5A607B681B7B84
:103500001B035B423A6A1A447B681A607B681B683B
:103510003B62BB690133BB61BA697B6A9A42BAD329
:10352000074B1B7843F00103DAB2054B1A700023F6
:1035300018462837BD4680BDD0210020C02100207C
:103540009029002080B586B000AFF860B9607A603D
:103550007B80304B1B7803F00103002B01D101234A
:1035600054E0F868FFF7D4FD034683F00103DBB2B3
:10357000002B01D0022349E07B68002B02D0BB68FE
:10358000002B01D1032341E07B6803F00303002BF0
:1035900004D1BB6803F00303002B01D0062335E000
:1035A000FB681A68BB689A4207D8FB685A687B8830
:1035B0009B00B9680B449A4201D2052326E07B8820
:1035C000002B01D1042321E007F114031846FFF773
:1035D000EDFE034683F00103DBB2002B01D007238D
:1035E00014E07B693A6A5A607B69FA681A607B6901
:1035F00001221A727B697A68DA607B69BA681A619B
:103600007B697A889A82FFF745FE002318461837AF
:10361000BD4680BD9029002080B586B000AFF8601F
:10362000B9603B601346FB802B4B1B7803F0010312
:10363000002B01D101234BE0F868FFF769FD034639
:1036400083F00103DBB2002B01D0022340E0BB6812
:10365000002B01D103233BE0BB68C3F30B03002B1A
:1036600001D0062334E0FB681A68BB689A4207D889
:10367000FB881B03BA681A44FB685B689A4201D94D
:10368000052325E0FB88002B01D1042320E007F16E
:1036900014031846FFF78AFE034683F00103DBB2EA
:1036A000002B01D0072313E07B693A685A607B69DD
:1036B000FA681A607B6902221A727B69BA68120B77
:1036C00092B29A817B69FA881A82FFF7E3FD0023A0
:1036D00018461837BD4680BD9029002080B483B0BD
:1036E00000AF78607B68002B01D1032304E0054B19
:1036F0005A6E7B681A60002318460C37BD465DF889
:10370000047B70479429002080B584B000AF7860B6
:103710001D4B1A6E13465B001344DB001A4A134418
:10372000FB601A4B1B7803F00203002B0ED07B6862
:10373000022B02D0032B04D020E0F868FFF7C4FD71
:1037400003E0F868FFF716FE00BF17E00F4B1B7889
:1037500003F00403002B11D00C4B1B7823F004035F
:10376000DAB20A4B1A70084B5B6E002B06D0074B7F
:103770001B7843F00203DAB2044B1A70FFF746FDE0
:103780001037BD4680BD00BF94290020902900203D
:1037900080B483B000AF78600B467B807B681A787A
:1037A0007B88012101FA03F3DBB21343DAB27B68B1
:1037B0001A700C37BD465DF8047B704780B483B047
:1037C00000AF78600B467B807B681A787B8801218C
:1037D00001FA03F3DBB2DB43DBB21340DAB27B68FE
:1037E0001A700C37BD465DF8047B704780B483B017
:1037F00000AF03460A46FB711346BB80FA79BB88CB
:1038000042FA03F303F00103002B14BF012300234A
:10381000DBB218460C37BD465DF8047B704700BF2D
:1038200080B584B000AF0346FB710023FB810DE03F
:10383000FA79FB8910461946FFF7D8FF0346002B9B
:1038400001D0FB8907E0FB890133FB81FB89072B52
:10385000EED94FF6FF7318461037BD4680BD00BF46
:1038600090B587B002AFF860B96011461A460B46B2
:10387000FB8013467B71FC887B790093F868B968FC
:103880000122234600F004F81437BD4690BD00BF66
:1038900080B586B000AFF860B9607A607B80FB6865
:1038A000002B38D0BB68002B35D07B68002B32D082
:1038B00000237B612CE07B695B00FA6813441B8862
:1038C0007A889A4221D100233B6119E097F8203091
:1038D000002B09D0BA683B691A447B699BB2104639
:1038E0001946FFF755FF08E0BA683B691A447B693F
:1038F0009BB210461946FFF761FF3B6901333B61FC
:103900003A697B689A42E1D305E07B6901337B61C8
:103910007B69072BCFD91837BD4680BD80B584B0F1
:1039200000AF78600B46FB7013463B807B68002B32
:1039300019D00023FB6013E0FB685B007A68134436
:103940001B883A889A4208D1FB689BB2FA781046E5
:103950001946FFF74BFF034606E0FB680133FB60A7
:10396000FB68072BE8D9002318461037BD4680BDF9
:10397000B0B58AB000AFF860B9601346FB710023A0
:103980003B61BB68002B20D000237B621AE07B6A7E
:103990009BB2FA7910461946FFF728FF0346002B21
:1039A0000DD03B695A1C3A617A6A5200B9680A44E0
:1039B00012885B0007F128010B4423F8142C7B6A62
:1039C00001337B627B6A072BE1D9FB681D4607F157
:1039D00010040FCC0FC523682B60F8682837BD464C
:1039E000B0BD00BF80B483B000AF786039603B6881
:1039F0001B7B002B07D03B685A687B681A607B688A
:103A000000221A7106E03B681A687B681A607B68BE
:103A100001221A710C37BD465DF8047B704700BF68
:103A200080B582B000AF786039607B681B79002B6D
:103A300004D07868396800F00BF803E078683968DA
:103A400000F028F87B681B6818460837BD4680BD23
:103A500080B483B000AF786039603B685A687B6897
:103A60001B68D21A3B689B689A4207D97B681A6820
:103A70003B689B681A447B681A6006E03B685A689A
:103A80007B681A607B6800221A710C37BD465DF8AE
:103A9000047B704780B483B000AF786039607B6886
:103AA0001A683B681B68D21A3B689B689A4207D920
:103AB0007B681A683B689B68D21A7B681A6006E0CC
:103AC0003B681A687B681A607B6801221A710C37A0
:103AD000BD465DF8047B704780B483B000AF78606A
:103AE0004FF080427B68C2F808330C37BD465DF862
:103AF000047B704780B485B000AF0346FB80FB8831
:103B000003F1804300221A60FB8803F180431B68A5
:103B1000FB60FB681437BD465DF8047B704700BF4F
:103B200080B483B000AF0346FB80FB8803F1804381
:103B30001B68002B14BF01230023DBB218460C378F
:103B4000BD465DF8047B704780B483B000AF034688
:103B5000FB714FF08042FB7903F00303C2F8183584
:103B60000C37BD465DF8047B704700BF80B500AFE1
:103B7000134B1B78002B01D085231EE0104B002235
:103B80009A600F4B00225A600D4B00221A610C4BB9
:103B90000022DA600020062100F008F90CF0E2FBB8
:103BA000034683F00103DBB2002B02D00120FFF7B4
:103BB000CBFF034B01221A700023184680BD00BFC3
:103BC000002A002080B485B000AF78607B681B6855
:103BD000FB60FB68002B03D0FB681A687B681A60E7
:103BE000FB6818461437BD465DF8047B704700BF7C
:103BF00080B584B000AF0346FB71FB79002B02D186
:103C00000A4BFB6001E00A4BFB60F868FFF7DAFF44
:103C1000B860BB68002B00D105E0BB685B68FA792F
:103C200010469847F1E71037BD4680BD082A0020AE
:103C3000102A002080B500AF4FF48070FFF770FFAE
:103C40000346002B0CD04FF48070FFF753FF012088
:103C5000FFF742FF0D4B01225A700020FFF7C8FF0B
:103C60004FF48270FFF75CFF0346002B0CD04FF43B
:103C70008270FFF73FFF0220FFF72EFF034B012268
:103C80009A700120FFF7B4FF80BD00BF002A00201A
:103C900080B582B000AF78607B68002B02D1002035
:103CA000FFF7A6FF0837BD4680BD00BF80B582B0D4
:103CB00000AF0023FB71FB1D1846FDF783FB0C4B87
:103CC0001B7883F00103DBB2002B01D0FFF74EFF1E
:103CD000074BDB680133064AD360054B01229A701B
:103CE000FB791846FDF778FB0837BD4680BD00BF5D
:103CF000002A002080B483B000AF0346FB7108495E
:103D000097F907305B09FA7902F01F02012000FAE7
:103D100002F241F823200C37BD465DF8047B704762
:103D200000E100E080B483B000AF0346FB710949B5
:103D300097F907305B09FA7902F01F02012000FAB7
:103D400002F2603341F823200C37BD465DF8047B56
:103D5000704700BF00E100E080B483B000AF0346CD
:103D60003960FB7197F90730002B0BDA0D49FB79AD
:103D700003F00F03043B3A68D2B25201D2B20B44B3
:103D80001A7609E0084997F907303A68D2B2520129
:103D9000D2B20B4483F800230C37BD465DF8047B98
:103DA000704700BF00ED00E000E100E080B582B0A8
:103DB00000AF03460A46FB711346BB71BB7997F906
:103DC000072010461946FFF7C7FF97F90730184636
:103DD000FFF7A8FF97F907301846FFF78BFF083762
:103DE000BD4680BD80B582B000AF0346FB80FB8836
:103DF000184600F023F803461B68012B0CBF012373
:103E00000023DBB218460837BD4680BD80B584B0BC
:103E100000AF0346FB80FB88184600F00FF803460E
:103E20001A4600231360FB88184600F007F8034683
:103E30001B68FB60FB681037BD4680BD80B483B053
:103E400000AF0346FB80FB8803F1804303F5C043CA
:103E500018460C37BD465DF8047B704780B483B0CC
:103E600000AF7860044A7B68C2F804330C37BD4663
:103E70005DF8047B704700BF0060004080B483B0F1
:103E800000AF7860054BD3F804237B6813401846D5
:103E90000C37BD465DF8047B704700BF00600040F2
:103EA00080B483B000AF78600949094A7B6803F5A4
:103EB000A27352F8233043F001027B6803F5A2732A
:103EC00041F823200C37BD465DF8047B704700BFE6
:103ED0000060004080B485B000AFF860B960134660
:103EE000FB711549144AFB6803F5A27352F823309D
:103EF00023F4473323F44073FA6802F5A27241F8C1
:103F000022300D480C4AFB6803F5A27352F82320B7
:103F1000BB681B0203F4F851FB791B0403F4403324
:103F20000B431A43FB6803F5A27340F823201437B0
:103F3000BD465DF8047B70470060004080B483B0EC
:103F400000AF7860074A7B6803F5A27352F823300C
:103F500003F4F8531B0A18460C37BD465DF8047B82
:103F6000704700BF0060004080B483B000AF78604D
:103F7000074A7B6803F5A27352F8233003F44033F9
:103F80001B0CDBB218460C37BD465DF8047B70474E
:103F90000060004080B483B000AF786008461146EE
:103FA0001A460346FB700B46BB7013467B704FF0FE
:103FB000A041FA78BB785B001A437B789B001A43D8
:103FC0003B7C1B021A433B7D1B041A437B6803F5B1
:103FD000E07341F823200C37BD465DF8047B704741
:103FE00090B585B002AF78600B46FB70FC7800237B
:103FF0000093002301937868002100222346FFF7F5
:10400000C9FF0C37BD4690BD80B485B000AF786065
:104010004FF0A0427B6803F5E07352F8233023F0A1
:104020000203FB604FF0A0417B6803F5E073FA6880
:1040300041F823201437BD465DF8047B704700BF6C
:1040400080B483B000AF78600B46FB704FF0A041A6
:104050004FF0A0427B6803F5E07352F8233023F45D
:1040600040327B6803F5E07341F823204FF0A04114
:104070004FF0A0427B6803F5E07352F82330FA78E2
:1040800012041A437B6803F5E07341F823200C37D0
:10409000BD465DF8047B704780B483B000AF7860A4
:1040A0004FF0A043D3F810257B6822FA03F303F006
:1040B000010318460C37BD465DF8047B704700BF0E
:1040C00080B400AF4FF0A043D3F810351846BD467A
:1040D0005DF8047B704700BF80B483B000AF7860A8
:1040E0004FF0A0427B6803F5E07352F8233003F4ED
:1040F00040331B0CDBB218460C37BD465DF8047B21
:10410000704700BF80B483B000AF78600D4A7B6811
:10411000134430331B785BB2002B09DB094A7B6800
:10412000134430331B785BB2072B01DC012300E022
:10413000002303F00103DBB218460C37BD465DF8DF
:10414000047B7047142A002080B483B000AF7860ED
:10415000084A7B68134430331B785BB2072BCCBF13
:1041600001230023DBB218460C37BD465DF8047B03
:10417000704700BF142A002080B483B000AF78607D
:10418000074A7B68134430331B78DB43DBB2DB091F
:10419000DBB218460C37BD465DF8047B704700BFA4
:1041A000142A002080B485B000AFF860B9607A604E
:1041B000FB70BB68D9B20F4AFB68134430330A4620
:1041C0001A700C49BB687A6841F82320FB7883F0A9
:1041D0000103DBB2002B08D0BB68083BFA68D1B200
:1041E000044A13440A4683F850201437BD465DF84C
:1041F000047B7047142A002080B483B000AF78603D
:10420000054A7B6813443033FF221A700C37BD46D1
:104210005DF8047B704700BF142A002080B483B08F
:1042200000AF7860054A7B68134430331B785BB27B
:1042300018460C37BD465DF8047B7047142A0020F1
:1042400080B483B000AF7860044A7B6852F82330B2
:1042500018460C37BD465DF8047B7047142A0020D1
:1042600080B588B000AFF860B9601346FB71FF23DA
:10427000FB77FB79002B01D0002300E008237B6152
:10428000FB79002B01D0082300E00C233B617B6904
:10429000BB6112E00E4ABB6952F82330B3F1FF3F15
:1042A00008D1FB79F868B969BA68FFF77BFFBB6989
:1042B000FB7706E0BB690133BB61BA693B699A428F
:1042C000E8D3FB7F5BB218462037BD4680BD00BFF8
:1042D000142A002080B483B000AF0346FB71FB7941
:1042E000094A4FF0FF3142F82310FB79072B06D91A
:1042F000FB79083B044A1344FF2283F850200C3713
:10430000BD465DF8047B7047142A002080B582B05A
:1043100000AF1B4B93F85430002B01D008232AE048
:104320000023FB7106E0FB791846FFF765FFFB7978
:104330000133FB71FB791F2BF5D90023FB7106E0DC
:10434000FB791846FFF7C6FFFB790133FB71FB7958
:104350000B2BF5D906200621FFF728FD4FF4BE7080
:10436000FFF754FD4FF00040FFF778FD044B0122AA
:1043700083F85420002318460837BD4680BD00BF8F
:10438000142A002080B400AF064B93F85430002B61
:1043900014BF01230023DBB21846BD465DF8047B41
:1043A000704700BF142A002080B586B000AFF860C7
:1043B000B9607A6000237B61F868FFF7DDFE034691
:1043C000002B02D008237B6141E0BB68DB78F868F2
:1043D00079681A46FFF744FF0346FB7497F91330D8
:1043E000B3F1FF3F31D0BB689B78002B03D0F86856
:1043F000FFF70AFE05E0BB685B78F8681946FFF72F
:10440000EFFDBB68DB78002B09D097F91320BB6860
:104410001B781046F9681A46FFF75CFD17E097F91C
:104420001330083B97F91320083A0B490A4492F8D5
:104430005010BA6812789201D2B20A43D1B2064A39
:1044400013440A4683F8502001E004237B617B6912
:1044500018461837BD4680BD142A002080B586B0A6
:1044600000AF78600B46FB707868FFF76DFE03467F
:10447000002B2BD07868FFF7D1FE0346083B2C4A6F
:10448000134493F85030BB75BB7D9B097B757B7DD6
:10449000032B0ED1FFF714FE01467B68012202FABE
:1044A00003F30B40002B01D0032300E00223FB7534
:1044B00006E07B7D012B01D1022300E00323FB7585
:1044C000FB7D78681946FFF7BBFD2DE07868FFF7A4
:1044D00019FE0346002B27D07868FFF79FFE03469E
:1044E0003B613B699BB240339BB29B00FB813B69C4
:1044F0001846FFF7D5FCFB891846FFF787FCFB78C9
:10450000002B11D07868FFF789FE03461846FFF7A5
:1045100097FEB860BB68002B06D001223B6902FA07
:1045200003F31846FFF79AFC1837BD4680BD00BF5D
:10453000142A002080B582B000AF78607868FFF759
:10454000ABFD0346002B14BF01230023DBB218464A
:104550000837BD4680BD00BF80B592B000AF0023D4
:104560007B6400233B644FF480737B8701237B6370
:104570000023FB631DE07B8F1846FFF733FC0346E7
:10458000002B0DD0786BFFF779FC0346002B07D08A
:104590007B8F1846FFF73AFC7A6C7B6B13437B6486
:1045A0007B6B5B007B637B8F04337B87FB6B01330F
:1045B000FB63FB6B072BDED94FF4BE70FFF712FCD9
:1045C0000346002B0AD04FF4BE70FFF71FFC7B6C34
:1045D00043F000437B64FFF773FD38647B6CDBB210
:1045E000002B29D001237B630023FB6321E07A6B3E
:1045F0007B6C1340002B16D0F86BFFF79FFC7862A2
:10460000F86BFFF7B1FC034687F82330F86BFFF730
:1046100017FEF861FB69002B05D097F82320FB6992
:10462000786A114698477B6B5B007B63FB6B0133B9
:10463000FB63FB6B072BDAD97B6C002B80F2958038
:10464000002387F833300023FB624FF0FF33BB6257
:10465000002387F833300023FB636BE0444AFB6B95
:10466000134450331B78FB76FB7E23F0C0037B6141
:104670003F4AFB6B134450331B785BB2B3F1FF3FEF
:1046800055D07B69BA6A22FA03F303F00103002BC9
:104690004DD0FB7E9B09FB747869FFF7BFFD034695
:1046A0001846FFF7CDFDF860FB68002B02D1FB7CBC
:1046B000032B3CD17B69012202FA03F37B63FB7C71
:1046C000032B03D1FA6A7B6B1343FB627869FFF714
:1046D00003FD0346FB727A6B3B6C1340002B02D048
:1046E000FB7A022B07D07A6B3B6C1340002B1ED158
:1046F000FB7A032B1BD1FB7C032B10D1FB7A022B03
:1047000001D1032300E00223BB72BB7A786919460A
:10471000FFF796FC97F83330013387F83330FB68A6
:10472000002B04D0FA7CFB68786911469847FB6B34
:104730000133FB63FB6B032B90D997F83330002BCD
:104740000ED0FFF7BDFC78607A683B6C9A4203D1CB
:10475000002387F8333003E07B683B64FB6ABB626D
:1047600097F83330002B7FF473AF4837BD4680BDD8
:10477000142A002080B483B000AF0346FB710949BE
:1047800097F907305B09FA7902F01F02012000FA5D
:1047900002F2203341F823200C37BD465DF8047B3C
:1047A000704700BF00E100E080B485B000AF7860E2
:1047B0000B467B807B887A68134400221A607B88D2
:1047C0007A6813441B68FB60FB681437BD465DF8CC
:1047D000047B704780B483B000AF78600B467B8069
:1047E0007B887A6813441B68002B14BF01230023C5
:1047F000DBB218460C37BD465DF8047B704700BF3E
:1048000080B483B000AF786039607B683A68C3F8E1
:1048100004230C37BD465DF8047B704780B483B039
:1048200000AF786039607B68D3F804233B6813409D
:10483000002B14BF01230023DBB218460C37BD4602
:104840005DF8047B704700BF80B483B000AF786030
:1048500039607B683A68C3F808230C37BD465DF8B9
:10486000047B704780B485B000AF78607B68D3F874
:104870008034FB607B68FA68C3F88024FB681846C4
:104880001437BD465DF8047B704700BF80B483B029
:1048900000AF78607B680422C3F800250C37BD4662
:1048A0005DF8047B704700BF80B483B000AF7860D0
:1048B0007B680022C3F800250C37BD465DF8047BF9
:1048C000704700BF80B485B000AFF860B9607A600F
:1048D000FB68BA68C3F80C25FB687A68C3F814252E
:1048E0001437BD465DF8047B704700BF80B582B0C9
:1048F00000AF786078684FF0FF314FF0FF32FFF77C
:10490000E1FF0837BD4680BD80B483B000AF78605A
:104910007B68D3F80C3518460C37BD465DF8047B30
:10492000704700BF80B483B000AF78607B68D3F875
:10493000143518460C37BD465DF8047B704700BF40
:1049400080B483B000AF78607B68D3F80835184630
:104950000C37BD465DF8047B704700BF80B483B060
:1049600000AF78607B68D3F8103518460C37BD4629
:104970005DF8047B704700BF80B485B000AFF8607D
:10498000B9607A60FB68BA68C3F80825FB687A6882
:10499000C3F810251437BD465DF8047B704700BF8F
:1049A00080B582B000AF786078684FF0FF314FF08B
:1049B000FF32FFF7E1FF0837BD4680BD80B483B00A
:1049C00000AF78607B68D3F81835DBB218460C3737
:1049D000BD465DF8047B704780B483B000AF78605B
:1049E0000B46FB70FA787B68C3F81C250C37BD4674
:1049F0005DF8047B704700BF80B483B000AF78607F
:104A00000B46FB70FB787A68134401221A600C375E
:104A1000BD465DF8047B704780B483B000AF78601A
:104A20000B46FB701346BB70FA78BB781343DBB2BE
:104A30001A467B68C3F86C250C37BD465DF8047BCD
:104A4000704700BF80B483B000AF786039607B6886
:104A50003A68C3F824250C37BD465DF8047B7047DF
:104A600080B485B000AF78600B467B807B887A6825
:104A7000134400221A607B887A6813441B68FB6029
:104A8000FB681437BD465DF8047B704780B483B083
:104A900000AF78600B467B807B887A6813441B6884
:104AA000002B14BF01230023DBB218460C37BD4690
:104AB0005DF8047B704700BF80B483B000AF7860BE
:104AC00039607B68D3F800223B68DB431A407B687F
:104AD000C3F800220C37BD465DF8047B704700BF69
:104AE00080B483B000AF786039607B683A68C3F8FF
:104AF00004230C37BD465DF8047B704780B483B057
:104B000000AF786039607B683A68C3F808230C37D7
:104B1000BD465DF8047B704780B485B000AF786017
:104B20007B68D3F88034FB607B68FA68C3F8802424
:104B3000FB6818461437BD465DF8047B704700BF1C
:104B400080B483B000AF78607B680822C3F800258A
:104B50000C37BD465DF8047B704700BF80B483B05E
:104B600000AF78607B680022C3F800250C37BD4693
:104B70005DF8047B704700BF80B485B000AFF8607B
:104B8000B9607A60FB68BA68C3F80C25FB687A687C
:104B9000C3F814251437BD465DF8047B704700BF89
:104BA00080B582B000AF786078684FF0FF314FF089
:104BB000FF32FFF7E1FF0837BD4680BD80B483B008
:104BC00000AF78607B68D3F80C3518460C37BD46CB
:104BD0005DF8047B704700BF80B483B000AF78609D
:104BE0007B68D3F8143518460C37BD465DF8047B56
:104BF000704700BF80B483B000AF78607B68D3F8A3
:104C0000083518460C37BD465DF8047B704700BF79
:104C100080B483B000AF78607B68D3F81035184655
:104C20000C37BD465DF8047B704700BF80B485B08B
:104C300000AFF860B9607A60FB68BA68C3F808250D
:104C4000FB687A68C3F810251437BD465DF8047B0D
:104C5000704700BF80B582B000AF786078684FF0D1
:104C6000FF314FF0FF32FFF7E1FF0837BD4680BD4F
:104C700080B483B000AF78600B46FB70FB787A6835
:104C8000134401221A600C37BD465DF8047B70475F
:104C900080B483B000AF78600B46FB701346BB70E6
:104CA000FA78BB781343DBB21A467B68C3F86C25ED
:104CB0000C37BD465DF8047B704700BF80B483B0FD
:104CC00000AF786039607B683A68C3F824250C37F8
:104CD000BD465DF8047B704780B485B000AFF860D6
:104CE000B9601346FB71BA68FB68C3F84425FA79CA
:104CF000FB68C3F848251437BD465DF8047B704750
:104D000080B483B000AF78607B68D3F84C35184628
:104D10000C37BD465DF8047B704700BF80B483B09C
:104D200000AF78607B68D3F83C3518460C37BD4639
:104D30005DF8047B704700BF80B582B000AF0346CA
:104D4000FB7197F907301846FFF714FD0837BD4689
:104D500080BD00BF80B485B000AF78607B681B0B5E
:104D6000FB73FB7B5BB218461437BD465DF8047BD2
:104D7000704700BF80B483B000AF7860084611462A
:104D80001A460346FB700B46BB7013467B704FF010
:104D9000A041FA78BB785B001A437B789B001A43EA
:104DA0003B7C1B021A433B7D1B041A437B6803F5C3
