:020000021000EC
:10C000000000012001C9010029C901002BC901005C
:10C010002DC901002FC9010031C901000000000035
:10C0200000000000000000000000000033C9010013
:10C0300035C901000000000037C9010039C90100FD
:10C040003BC901003BC901003BC901003BC90100DC
:10C050003BC901003BC901003BC901003BC90100CC
:10C060003BC901003BC901003BC901003BC90100BC
:10C070003BC901003BC901003BC901003BC90100AC
:10C080003BC901003BC901003BC901003BC901009C
:10C090003BC901003BC901003BC901003BC901008C
:10C0A0003BC901003BC901003BC901003BC901007C
:10C0B0003BC901003BC90100000000000000000076
:10C0C0003BC901003BC901003BC901003BC901005C
:10C0D0003BC901003BC901003BC901000000000051
:10C0E0000000000000000000000000000000000050
:10C0F0000000000000000000000000000000000040
:10C10000000000000000000000000000000000002F
:10C11000000000000000000000000000000000001F
:10C4000010B5054C237833B9044B13B10448AFF38E
:10C4100000800123237010BD3814002000000000AC
:10C4200060C90100084B10B51BB108490848AFF3BB
:10C4300000800848036803B910BD074B002BFBD0F0
:10C44000BDE81040184700BF000000003C14002069
:10C4500060C901003414002000000000154B002BBF
:10C4600008BF134B9D46A3F5803A00218B460F462B
:10C470001348144A121A00F065F80F4B002B00D035
:10C4800098470E4B002B00D0984700200021040055
:10C490000D000D48002802D00C48AFF3008000F0DA
:10C4A0002BF82000290000F0AFF900F011F800BFD0
:10C4B0000000080000000120000000000000000053
:10C4C0003814002054140020000000000000000078
:10C4D00008B5074B044613B10021AFF30080054BAC
:10C4E0001868836A03B19847204600F033F800BF0C
:10C4F0000000000054C9010070B50E4B0E4CE41A48
:10C50000A41000251E46A54204D056F825309847B1
:10C510000135F8E700F012FA084C094BE41AA410B0
:10C5200000251E46A54204D056F82530984701350F
:10C53000F8E770BD2C1400202C14002030140020CB
:10C540002C14002002440346934202D003F8011B3E
:10C55000FAE77047FEE700BFF0B4984B1B78062B54
:10C560001BD0974AD2F8883043F47003C2F8883061
:10C57000BFF34F8FBFF36F8F4FF01023D3F800221C
:10C58000002AC0F2E980D3F80432002BC0F2E48024
:10C590008C4B8D4A1A60F0BC70478C4B1B681D0792
:10C5A000DFD18B4B1B6803F0F003302B02D1894B9A
:10C5B000894A1A60864B1B6803F0F002302A00F0AB
:10C5C000BA8003F0E003402B00F0B580804B1B687D
:10C5D00003F0F003302B00F09E807D4B1B6803F0CE
:10C5E000F002302A00F0838003F0E003402B7ED07D
:10C5F000774B1B6803F0F003302B6AD0744B1B6839
:10C6000003F0F003302B4DD0714B1B6803F0F003A7
:10C61000502BA6D14FF08052704BD2F80414C3F8BF
:10C620002015D2F80814C3F82415D2F80C14C3F856
:10C630002815D2F81014C3F82C15D2F81414C3F826
:10C640003015D2F81814C3F83415D2F81C14C3F8F6
:10C650004015D2F82014C3F84415D2F82414C3F8B6
:10C660004815D2F82814C3F84C15D2F82C14C3F886
:10C670005015D2F83014C3F85415D2F83414C3F856
:10C680006015D2F83814C3F86415D2F83C14C3F816
:10C690006815D2F84014C3F86C15D2F84424C3F8D6
:10C6A00070255EE7454B4E491B784E4D4E484F4A2C
:10C6B00005270F60012600243F21062B2E60046011
:10C6C00011607FF44EAF414B1B681B077FF449AFED
:10C6D0009AE73A4B464A1B780321062B11607FF4F8
:10C6E00040AF3A4B1B681A077FF43BAF86E7334BEA
:10C6F0001B784FF080420021062BC2F80C11C2F8C3
:10C700001011C2F838157FF42CAF304B1B68190795
:10C710007FF427AF6CE7374A2849D368097823F0BC
:10C7200080730629D3607FF41CAF284B1B68180761
:10C730007FF417AF51E7304A204B12681B782F491E
:10C74000C2F34232062B0A607FF40BAF1F4B1B680B
:10C750001C077FF406AF39E7294B0122C3F80425F3
:10C76000D3F80024002AFBD04FF0102315222449CF
:10C77000C3F80022D1F80034002BFBD04FF0102377
:10C7800015221F49C3F80422D1F800241C4B002AAB
:10C79000FAD00022C3F80425D3F80024002AFBD0E5
:10C7A000BFF34F8F0649174BCA6802F4E062134388
:10C7B000CB60BFF34F8F00BFFDE700BFE00F00F07D
:10C7C00000ED00E0281400200090D003E40F00F0FA
:10C7D000E80F00F074C007400DF0ADBA00C0004093
:10C7E000105600408856004018560040145600402D
:10C7F000A0050040F0ED00E0440200103C050040C0
:10C8000000E001400400FA05F8B5154800234FF098
:10C81000A041032203E0ED0748BF41F82420013383
:10C82000202B40FA03F503F5E074F4D14FF0A04556
:10C8300001270C4C04F1080614F8012FD5F8041553
:10C8400007FA02F323EA01020B40C5F8082532205B
:10C85000C5F80C3500F008F8A642EDD1E9E700BFB5
:10C860002061460257C9010082B00190019B002B54
:10C8700043D0019B013B019340F2E730013800BFF8
:10C8800000BF00BF00BF00BF00BF00BF00BF00BFB0
:10C8900000BF00BF00BF00BF00BF00BF00BF00BFA0
:10C8A00000BF00BF00BF00BF00BF00BF00BF00BF90
:10C8B00000BF00BF00BF00BF00BF00BF00BF00BF80
:10C8C00000BF00BF00BF00BF00BF00BF00BF00BF70
:10C8D00000BF00BF00BF00BF00BF00BF00BF00BF60
:10C8E00000BF00BF00BF00BF00BF00BF00BF00BF50
:10C8F00000BFC3D1019B002BBBD102B0704700BF6A
:10C900000649074A074B9B1A03DD043BC858D05021
:10C91000FBDCFFF721FEFFF7A1FD00006CC9010061
:10C92000C813002038140020FEE7FEE7FEE7FEE70C
:10C93000FEE7FEE7FEE7FEE7FEE7FEE7F8B500BF2D
:10C94000F8BC08BC9E467047F8B500BFF8BC08BCF0
:10C950009E467047C81300200D111905080E1216C7
:04C9600000000000D3
:08C96400F8FAFF7F010000005A
:10C96C0000000000000000000000000000000000BB
:10C97C0000000000000000000000000000000000AB
:10C98C00000000000000000000000000000000009B
:10C99C00000000000000000000000000000000008B
:10C9AC00000000000000000000000000000000007B
:10C9BC00000000000000000000000000000000006B
:10C9CC000090D00325C4010001C401000000000048
:040000031000C9011F
:00000001FF
